{
  "contractName": "Lottery",
  "abi": [
    {
      "constant": true,
      "inputs": [],
      "name": "owner",
      "outputs": [
        {
          "name": "",
          "type": "address"
        }
      ],
      "payable": false,
      "stateMutability": "view",
      "type": "function"
    },
    {
      "inputs": [],
      "payable": false,
      "stateMutability": "nonpayable",
      "type": "constructor"
    },
    {
      "anonymous": false,
      "inputs": [
        {
          "indexed": false,
          "name": "index",
          "type": "uint256"
        },
        {
          "indexed": false,
          "name": "bettor",
          "type": "address"
        },
        {
          "indexed": false,
          "name": "amount",
          "type": "uint256"
        },
        {
          "indexed": false,
          "name": "challenges",
          "type": "bytes1"
        },
        {
          "indexed": false,
          "name": "answerBlockNumber",
          "type": "uint256"
        }
      ],
      "name": "BET",
      "type": "event"
    },
    {
      "constant": true,
      "inputs": [],
      "name": "getPot",
      "outputs": [
        {
          "name": "",
          "type": "uint256"
        }
      ],
      "payable": false,
      "stateMutability": "view",
      "type": "function"
    },
    {
      "constant": false,
      "inputs": [
        {
          "name": "challenges",
          "type": "bytes1"
        }
      ],
      "name": "bet",
      "outputs": [
        {
          "name": "result",
          "type": "bool"
        }
      ],
      "payable": true,
      "stateMutability": "payable",
      "type": "function"
    },
    {
      "constant": true,
      "inputs": [
        {
          "name": "index",
          "type": "uint256"
        }
      ],
      "name": "getBetInfo",
      "outputs": [
        {
          "name": "answerBlockNumber",
          "type": "uint256"
        },
        {
          "name": "bettor",
          "type": "address"
        },
        {
          "name": "challenges",
          "type": "bytes1"
        }
      ],
      "payable": false,
      "stateMutability": "view",
      "type": "function"
    },
    {
      "constant": false,
      "inputs": [
        {
          "name": "challenges",
          "type": "bytes1"
        }
      ],
      "name": "pushBet",
      "outputs": [
        {
          "name": "",
          "type": "bool"
        }
      ],
      "payable": false,
      "stateMutability": "nonpayable",
      "type": "function"
    },
    {
      "constant": false,
      "inputs": [
        {
          "name": "index",
          "type": "uint256"
        }
      ],
      "name": "popBet",
      "outputs": [
        {
          "name": "",
          "type": "bool"
        }
      ],
      "payable": false,
      "stateMutability": "nonpayable",
      "type": "function"
    }
  ],
  "bytecode": "0x608060405234801561001057600080fd5b5033600360006101000a81548173ffffffffffffffffffffffffffffffffffffffff021916908373ffffffffffffffffffffffffffffffffffffffff160217905550610874806100616000396000f3fe608060405260043610610078576000357c0100000000000000000000000000000000000000000000000000000000900463ffffffff168063032820961461007d578063403c9fa8146100f257806379141f801461011d5780638da5cb5b146101ea578063d04c9a8c14610241578063f4b46f5b14610294575b600080fd5b34801561008957600080fd5b506100d8600480360360208110156100a057600080fd5b8101908080357effffffffffffffffffffffffffffffffffffffffffffffffffffffffffffff191690602001909291905050506102fc565b604051808215151515815260200191505060405180910390f35b3480156100fe57600080fd5b50610107610460565b6040518082815260200191505060405180910390f35b34801561012957600080fd5b506101566004803603602081101561014057600080fd5b810190808035906020019092919050505061046a565b604051808481526020018373ffffffffffffffffffffffffffffffffffffffff1673ffffffffffffffffffffffffffffffffffffffff168152602001827effffffffffffffffffffffffffffffffffffffffffffffffffffffffffffff19167effffffffffffffffffffffffffffffffffffffffffffffffffffffffffffff19168152602001935050505060405180910390f35b3480156101f657600080fd5b506101ff61058f565b604051808273ffffffffffffffffffffffffffffffffffffffff1673ffffffffffffffffffffffffffffffffffffffff16815260200191505060405180910390f35b34801561024d57600080fd5b5061027a6004803603602081101561026457600080fd5b81019080803590602001909291905050506105b5565b604051808215151515815260200191505060405180910390f35b6102e2600480360360208110156102aa57600080fd5b8101908080357effffffffffffffffffffffffffffffffffffffffffffffffffffffffffffff19169060200190929190505050610619565b604051808215151515815260200191505060405180910390f35b60006103066107ee565b33816020019073ffffffffffffffffffffffffffffffffffffffff16908173ffffffffffffffffffffffffffffffffffffffff1681525050600343018160000181815250508281604001907effffffffffffffffffffffffffffffffffffffffffffffffffffffffffffff191690817effffffffffffffffffffffffffffffffffffffffffffffffffffffffffffff1916815250508060026000805481526020019081526020016000206000820151816000015560208201518160010160006101000a81548173ffffffffffffffffffffffffffffffffffffffff021916908373ffffffffffffffffffffffffffffffffffffffff16021790555060408201518160010160146101000a81548160ff02191690837f01000000000000000000000000000000000000000000000000000000000000009004021790555090505060008081548092919060010191905055506001915050919050565b6000600454905090565b60008060006104776107ee565b6002600086815260200190815260200160002060606040519081016040529081600082015481526020016001820160009054906101000a900473ffffffffffffffffffffffffffffffffffffffff1673ffffffffffffffffffffffffffffffffffffffff1673ffffffffffffffffffffffffffffffffffffffff1681526020016001820160149054906101000a90047f0100000000000000000000000000000000000000000000000000000000000000027effffffffffffffffffffffffffffffffffffffffffffffffffffffffffffff19167effffffffffffffffffffffffffffffffffffffffffffffffffffffffffffff1916815250509050806000015193508060200151925080604001519150509193909250565b600360009054906101000a900473ffffffffffffffffffffffffffffffffffffffff1681565b6000600260008381526020019081526020016000206000808201600090556001820160006101000a81549073ffffffffffffffffffffffffffffffffffffffff02191690556001820160146101000a81549060ff0219169055505060019050919050565b60006611c37937e0800034141515610699576040517f08c379a000000000000000000000000000000000000000000000000000000000815260040180806020018281038252600e8152602001807f4e6f7420656e6f7567682045544800000000000000000000000000000000000081525060200191505060405180910390fd5b6106a2826102fc565b1515610716576040517f08c379a000000000000000000000000000000000000000000000000000000000815260040180806020018281038252601a8152602001807f4661696c20546f206164642061206e65772042657420496e666f00000000000081525060200191505060405180910390fd5b7f100791de9f40bf2d56ffa6dc5597d2fd0b2703ea70bc7548cd74c04f5d215ab760016000540333348560034301604051808681526020018573ffffffffffffffffffffffffffffffffffffffff1673ffffffffffffffffffffffffffffffffffffffff168152602001848152602001837effffffffffffffffffffffffffffffffffffffffffffffffffffffffffffff19167effffffffffffffffffffffffffffffffffffffffffffffffffffffffffffff191681526020018281526020019550505050505060405180910390a160019050919050565b60606040519081016040528060008152602001600073ffffffffffffffffffffffffffffffffffffffff16815260200160007effffffffffffffffffffffffffffffffffffffffffffffffffffffffffffff19168152509056fea165627a7a7230582023be477df309584415958909784fd24640e3c599a06c3c8c28266f08309961ec0029",
  "source": "pragma solidity >=0.4.21 <0.6.0;\n\ncontract Lottery\n{\n    struct BetInfo\n    {\n        uint256 answerBlockNumber;\n        address payable bettor;\n        byte challenges; // 0xab 등 1byte 문자.\n    }\n\n    uint256 private _tail;\n    uint256 private _head;\n\n    mapping (uint256 => BetInfo) private _bets; // map 으로 만드는 queue\n    \n    address public owner;\n\n    uint256 constant internal BET_AMOUNT = 5 * 10 ** 15;\n    uint256 constant internal BET_BLOCK_INTERVAL = 3;\n    uint256 constant internal BET_LIMIT = 256;\n\n    uint256 private _pot;\n\n    event BET(uint256 index, address bettor, uint256 amount, byte challenges, uint256 answerBlockNumber);\n\n    constructor() public \n    {\n        owner = msg.sender;\n    }\n\n    function getPot() public view returns(uint256)\n    {\n        return _pot;\n    }\n\n    // Bet\n    /**\n    * @dev 배팅을 한다. 유저는 0.005 ETH를 보내고, 배팅용 1byte 글자를 보낸다. \n    * 큐에 저장된 배팅 정보는 이후 distribute함수에서 해결된다.\n    * @param challenges characters, betted by user\n    * @return bool check the function correct\n     */\n    function bet(byte challenges) public payable returns (bool result)\n    {\n        // check the proper ether is sent\n        require(msg.value == BET_AMOUNT, \"Not enough ETH\");\n\n        // push bet to the queue\n        require(pushBet(challenges), \"Fail To add a new Bet Info\");\n        // emit event\n        emit BET(_tail - 1, msg.sender, msg.value, challenges, block.number + BET_BLOCK_INTERVAL);\n\n        return true;\n    }\n\n     // save the bet to the queue\n\n    // Distribute\n     // check the answer\n\n     function getBetInfo(uint256 index) public view returns (uint256 answerBlockNumber, address bettor, byte challenges)\n     {\n         BetInfo memory betInfo = _bets[index];\n         answerBlockNumber = betInfo.answerBlockNumber;\n         bettor = betInfo.bettor;\n         challenges = betInfo.challenges;\n     }\n\n     function pushBet(byte challenges) public returns(bool){\n         BetInfo memory betInfo;\n         betInfo.bettor = msg.sender;\n         betInfo.answerBlockNumber = block.number + BET_BLOCK_INTERVAL;\n         betInfo.challenges = challenges;\n\n         _bets[_tail] = betInfo;\n         _tail++;\n\n         return true;\n     }\n\n     function popBet(uint256 index) public returns (bool)\n     {\n         delete _bets[index]; // 뽑아 내는 것 gas를 돌려받는다. 사용하지 않은 값에 대해서 사용하는게 좋음.\n        return true;\n     }\n}",
  "sourcePath": "/Users/kwanghoyeom/dev/ethereum/solidity/lotteryEx/contracts/Lottery.sol",
  "compiler": {
    "name": "solc",
    "version": "0.5.0+commit.1d4f565a.Emscripten.clang"
  },
  "schemaVersion": "3.0.1",
  "updatedAt": "2019-07-08T06:10:20.202Z",
  "devdoc": {
    "methods": {
      "bet(bytes1)": {
        "details": "배팅을 한다. 유저는 0.005 ETH를 보내고, 배팅용 1byte 글자를 보낸다.  큐에 저장된 배팅 정보는 이후 distribute함수에서 해결된다.",
        "params": {
          "challenges": "characters, betted by user"
        },
        "return": "bool check the function correct"
      }
    }
  },
  "userdoc": {
    "methods": {}
  }
}